:02000000EF28E7
:10000800FF00030E8301BD000A08BC008A018B1C97
:1000180012288B10FF30BA00FF30BB003C088A0062
:0A0028003D0E8300FF0E7F0E09005D
:0E0032008312031337088A0036088200080084
:10004000710DF80DF90D7408F8027508031C750F91
:10005000F902F00DF10D0F30FC00710DF80DF90DE6
:100060007408701C3928F8027508031C750FF90212
:100070003E28F80775080318750FF907F00DF10D04
:10008000FC0B2D2870184A287408F8077508031807
:08009000750FF90700000800DC
:10009800831203137408003A031D5B287508003A9D
:1000A800031D5B28FF30F0007F30F100B428831275
:1000B8000313FD01F901F8017108700403190034F4
:1000C80071087506FA00FA1BFD09FB01F51F712876
:1000D800F409F509F40A0319F50AF11F7828F0095B
:1000E800F109F00A0319F10A71087504FA00FA1BFC
:1000F8008D2820207B18A028FD1F0034F009F10965
:10010800F00A0319F10AF809F909F80A0319F90AB2
:100118000034F51F9C28F11B98287108F900700815
:10012800F800F101F0018028F101F001F00A003433
:10013800F109F009FB0A7D28F80A0319F90A74087D
:100148007802031D802875087902031D8028F901AB
:10015800F801F00A0319F10AF11F80280000FF34A2
:0201680008008D
:10016A0019208A110A128000840AB60A0319B70AEA
:08017A00F003031DB528080085
:1001820028308312031386003A083B040319D5284A
:100192000530FB000F30FC00F130FD00FD0BCF28D5
:0E01A200FC0BCF28FB0BCF2820308600080076
:1001B00044308312031386003A083B040319EC28E9
:1001C0000530FB000F30FC00F130FD00FD0BE62890
:0E01D000FC0BE628FB0BE62804308600080036
:1001DE0083120313A001A1011030A200A30120304D
:1001EE00A400A5013030A600A7014030A800A90147
:1001FE005030AA00AB016030AC00AD017030AE00E3
:10020E00AF018030B000B1019030B200B3010130C7
:10021E00B400B501073083169F00880108088700D7
:10022E000708860006088500061406182029051200
:10023E00212905168B170B160117811383128801BE
:10024E000808870007088600061C2E29BA2A3408DB
:10025E0035040319F029843086000F3085000F30E5
:10026E00BA000030BB0080303B06F00080307002D8
:10027E00031D432900303A02031CEF290A30F40013
:10028E000030F5003A08F0003B08F1004C207008F1
:10029E00F2007108F300F20DF30D72107208203E99
:1002AE0084000A30F4000030F5003A08F0003B08F4
:1002BE00F1004C207808F0007908F1007008000772
:1002CE00880003303A02F1000030031C013E3B026D
:1002DE00F2008030F000803072067002031D792922
:1002EE007108003C0318C52903303A02BE000030E5
:1002FE00031C013E3B02BF000A30F4000030F50043
:10030E003E08F0003F08F1004C207008F200710822
:10031E00F300F20DF30D72107208203E84000A30C5
:10032E00F4000030F5003E08F0003F08F1004C20CC
:10033E007808F0007908F100700800078700B8010E
:10034E00B90180303906F0008030033A7002031D87
:10035E00B229E83038020318C4290618C42903301C
:10036E00FC009730FD00FD0BBA29FC0BBA290000EA
:10037E000000B80A0319B90AA829EA293A08870021
:10038E00D8203A083B040319EA29B801B901803094
:10039E003906F0008030023A7002031DD829583019
:1003AE0038020318EA290618EA290330FC009730B0
:1003BE00FD00FD0BE029FC0BE02900000000B80A4F
:1003CE000319B90ACE290130BA02031CBB033A291C
:1003DE00AD2A303086000F3085001730BA0000305D
:1003EE00BB0080303B06F00080307002031D012AF6
:1003FE0000303A02031CAD2A0A30F4000030F5003A
:10040E003A08F0003B08F1004C207008F200710829
:10041E00F300F20DF30D72107208203E84000A30C4
:10042E00F4000030F5003A08F0003B08F1004C20D3
:10043E007808F0007908F100700800078700033093
:10044E003A02F1000030031C013E3B02F200803004
:10045E00F000803072067002031D372A7108003CCE
:10046E000318832A03303A02BE000030031C013EFB
:10047E003B02BF000A30F4000030F5003E08F000E9
:10048E003F08F1004C207008F2007108F300F20DE5
:10049E00F30D72107208203E84000A30F400003012
:1004AE00F5003E08F0003F08F1004C207808F000FF
:1004BE007908F100700800078800B801B901803092
:1004CE003906F0008030033A7002031D702AE830BE
:1004DE0038020318822A0618822A0330FC0097304D
:1004EE00FD00FD0B782AFC0B782A00000000B80AEC
:1004FE000319B90A662AA82A3A088800C1203A08C0
:10050E003B040319A82AB801B90180303906F0005E
:10051E008030023A7002031D962A583038020318B2
:10052E00A82A0618A82A0330FC009730FD00FD0B00
:10053E009E2AFC0B9E2A00000000B80A0319B90A75
:10054E008C2A0130BA02031CBB03F829061CB02A00
:10055E00BA2A340835040130031D0030B400B5004A
:10056E000030B5002E298501050887000708880090
:10057E00340835040319FE2A84308600051EFD2A30
:10058E00051ECA2AC72A0C3085000330BA00003077
:10059E00BB0080303B06F00080307002031DD92A6C
:1005AE0000303A02031CF42A3A088700D8203A0891
:1005BE003B040319EF2A0730FB001730FC006A30AA
:1005CE00FD00FD0BE82AFC0BE82AFB0BE82A0000D5
:1005DE000130BA02031CBB03D02A340835040130A3
:1005EE00031D0030B400B5000030B500382B30309C
:1005FE008600051E382B051E052B022B03308500A9
:10060E000330BA000030BB0080303B06F000803073
:10061E007002031D142B00303A02031C2F2B3A08D4
:10062E008800C1203A083B0403192A2B0730FB002F
:10063E001730FC006A30FD00FD0B232BFC0B232B27
:10064E00FB0B232B00000130BA02031CBB030B2B48
:10065E00340835040130031D0030B400B5000030FD
:0C066E00B500061C3B2BBA2A2E293C2BA1
:02400E004A2F37
:00000001FF
